:020000040000FA
:040000008A110B282E
:10000800FE00030EF0000A08F1008A157D288A1107
:100018000D2883160130E400A03083138400DF30FC
:100028008A1556208A115630840070308A15562059
:10003800F901FA01FB0183018A155F2AFF000030EC
:100048008A007F08820727288A11F52F8A154728F2
:100058008A154E288A1542285008F3004F08F200E6
:100068004C08F5004B08F400EC228A11720883163C
:10007800DF0083125008F3004F08F2004A08F50029
:100088004908F400EC228A117208013E8316E00048
:1000980083124C088316E30083124B088316E20090
:1000A80083124F088316E202831250088316031C3A
:1000B800E303E30283126008031D66285108E82160
:1000C8008A11B32802306006031D892883165F0849
:1000D800E10061086002031C7C2883125108D221C8
:1000E8008A118312031386187C288316E10A6D2867
:1000F800831663088312CA00831662088312C90034
:10010800E001E00AC1208A11B328600BB3288A15E0
:100118000E248A11003A0319B32883124F08C9071D
:100128000318CA0A5008CA078316C001C00AC101C9
:10013800C201C301C1208A11831203134A084E0267
:10014800031DA82849084D020318B3284E08CA0001
:100158004D08C90005228A1183120313E001831692
:100168000313630883124A06031DBE288316620818
:1001780083124906031D0800C1288B138312031339
:100188006D088316BB0083126C088316BA008312AD
:100198006B088316B90083126A088316B8008B1798
:1001A800000008008B130730831203139F00AF224F
:1001B8008A1181128B168312810183160C14831203
:1001C800101417308E00FC308F008B110B12831621
:1001D80001138312E501E50AE8010310061D031463
:1001E8000030031801308316DE002C268A113922CC
:1001F8008A118B170000831203136103031D34292E
:1002080006160030F5001630F400E330F3006030D5
:10021800F200DF258A1183120313061286182E298D
:10022800051B202905228A118B1301308312031321
:10023800E8008B1700002E296F227B088A112220E4
:100248008A11003A043003192C29D2218A1104306A
:10025800D2218A118B1383120313E1018B1700003B
:100268000030BA218A118312B2000130BA218A11F2
:100278008312B3000230C7218A1174088312DD008B
:100288007308DC000430C7218A1174088312DB006C
:100298007308DA000630BA218A118312E6000730A3
:1002A800C7218A117408D4007308D3000930C72104
:1002B8008A117408D2007308D1000B30BA218A1150
:1002C8008312E7005A08A400A50166082407A600BF
:1002D8000030031801302507A7002608093EA800AA
:1002E80027080318013EA9002808AA000130AB011D
:1002F800AC01AD002A082C02AE002B08031C2B0A07
:100308002D02AF003308B000B1012F083106031DDC
:100318008F292E083006031D952909303206031946
:10032800AB298830DC001330DD005030DA0046306D
:10033800DB001430E60010308316D3002730D400D9
:10034800E830D1000330D20004308312E7008B1369
:100358006608EF008B17000083120313E30183166E
:10036800C001C00AC101C201C3010800F200640053
:10037800831603139C18BB2972089B003F309C0509
:100388001C141A080800F600013EBA218A11F5006B
:100398007608BA21F4007508F3000800F600E82191
:1003A8008A110230F501F400BF30F3002030F2006A
:1003B800DF258A1133228A110530F501F400573000
:1003C800F3003030F200DF2DF200721CEF298312A7
:1003D80003130514F229831203130510F21CF829DC
:1003E800831203138616FB29831203138612721DC8
:1003F800012A831203130616080083120313061238
:10040800080033228A1117228A1117228A1117220B
:100418008A1117228A110F30F501F4004230F300D7
:100428004030F200DF2D01301F228A1104301F22D4
:100438008A1102301F2AF600E8218A11C330F5011B
:10044800F401F3005030F200DF258A1133228A11BB
:100458001330F501F401F3008830F200DF2D831228
:100468000313061205108612080083120313EA010B
:10047800EB01EC01ED018316B801B901BA01BB012A
:100488008312D601D701D801D9018316B401B50169
:10049800B601B701B001B101B201B301AC01AD01C0
:1004A800AE01AF01A801A901AA01AB01A401A501F0
:1004B800A601A701C801C901CA01CB01C401C50130
:1004C800C601C701C001C101C201C301BC01BD0110
:1004D800BE01BF0108000730F501F400A130F300A8
:1004E8002030F200DF258A1183160313590B852A61
:1004F8000F3091228A110D3091228A110C309122ED
:100508008A11F701831603135808770203180800A5
:100518000230D2218A11F70A862AF6000D3083129A
:1005280003139F007608C03883169F0000006430CC
:10053800F200F301F401F501DF258A118312031398
:100548009F1FA82A8316D803073083129F0083169B
:100558009F01000008008316850100000230831205
:1005680003138500000083160313850000000000B4
:100578000000000000000000000000000000000073
:1005880000000000000083160313D9018501033021
:100598008600000016308312031385004F30860052
:1005A800000083160313851183128515831685179A
:1005B80005170515861506150130FB000530D7000F
:1005C8000330FA000730D6000430D8008113080041
:1005D800F701F801720873040319112BF601F60AE2
:1005E800F31BFA2A0310F20DF30DF32A0310F70D8B
:1005F800F80D73087502031D032B72087402031C9F
:100608000D2B7208F4027308031CF503F502771426
:100618000310F30CF20CF60BFA2A7808F3007708AB
:10062800F20008008A150E248A11003A03193F2B9C
:100638008312E301E30A620B272B03306706031DCD
:10064800272B0330E3008316E40183126508031D9A
:100658003F2B0330EE00051486160130F501F40136
:10066800F300F430F200DF258A118312031305101A
:1006780086120230EE008312650BCD2C8B136D08A9
:1006880083162F02031D582B83126C0883162E0223
:10069800031D582B83126B0883162D02031D582B3C
:1006A80083126A0883162C02031C5E2B83126308CC
:1006B8000319CA2C8B1700007A088A1122208A1184
:1006C8008B1383161F300313AF01AE01AD0040300A
:1006D800AC0083126A088316AC0783126B080311F7
:1006E8000318013E8316031DAD0783126C0803111E
:1006F8000318013E8316031DAE0783126D0803110C
:100708000318013E8316031DAF0783168B170000DD
:100718001430F200F301F401F501DF258A118B137F
:100728008312031364080319FA2B6A30C9000430D2
:10073800CA000130CB00CC01831648088312C907D0
:10074800831649080318490FAA2BAC2B8312CA0732
:1007580083164A0803184A0FB22BB42B8312CB070F
:1007680083164B0803184B0A8312CC076D084C02FA
:10077800031DC82B6C084B02031DC82B6B084A02CB
:10078800031DC82B6A0849020318FA2B8B170000AF
:100798008B13831203135E08031DF22B8B170000C3
:1007A8008B1383120313D9010330D800D030D7003C
:1007B8009030D6008316B7010130B600E830B50096
:1007C8004830B40001308312DE000A30EF0083168F
:1007D800DD01F901DE01DE0A8B1700008B1700002E
:1007E8008B1383120313E4018B1700008B1700008F
:1007F80083120313061C062C8B13EE01EE0A8B17CB
:100808000000172C8B130230EE008B1700008B139F
:10081800831203135E080319152C8B1700002C266E
:100828008A118B17000083120313630803191E2C07
:1008380045268A118B130230831203136706031DA2
:100848008618B82C0618B82C83166408031DB82C13
:1008580090308312C900D030CA000330CB00CC01DD
:1008680083163C088312C90783163D0803183D0FF9
:100878003E2C402C8312CA0783163E0803183E0FED
:10088800462C482C8312CB0783163F0803183F0ACF
:100898008312CC076D084C02031D5C2C6C084B02BC
:1008A800031D5C2C6B084A02031D5C2C6A08490274
:1008B8000318B82C8B1700008B138312073003130F
:1008C800D001CF00A130CE002030CD006A08CD077E
:1008D8006B0803110318013E031DCE076C080311B2
:1008E8000318013E031DCF076D0803110318013ECD
:1008F800031DD00750086D02031D8C2C4F086C0295
:10090800031D8C2C4E086B02031D8C2C4D086A02AB
:100918000318A12C8B170000640083120313861898
:10092800972C061C9F2C8316E401E40A8312CD0140
:10093800CE01CF01D0018B137E2C8B1700008316BC
:1009480003136408031DB52C831286175A08F20096
:100958005B08F300F401F501DF258A118312031304
:1009680086138316E401E40A8B1700008B138312A5
:1009780003136408031DC82C8B1700008316031388
:1009880056088A1122208A118B1700008B17000045
:10099800D22C63080319D22C45268A118B13831293
:1009A80003136D0883163302031DEA2C83126C08A7
:1009B80083163202031DEA2C83126B088316310258
:1009C800031DEA2C83126A088316300203184E2D81
:1009D8008312590858045704560403194E2D590810
:1009E80058045704560403194E2D5F08031DFE2CA6
:1009F8000130FF2C0030DF005F0B252D6A088316BD
:100A080034078312C9000030031801306B07CB018B
:100A18000318CB0A831635078312CA000318CB0ABA
:100A28006C084B07CC010318CC0A831636078312CF
:100A3800CB000318CC0A6D084C07831637078312BE
:100A48003F2D6A085607C9000030031801306B07AC
:100A5800CB010318CB0A5707CA000318CB0A6C0846
:100A68004B07CC010318CC0A5807CB000318CC0A53
:100A78006D084C075907CC008316B30083124B0846
:100A88008316B20083124A088316B10083124908FC
:100A98008316B0008B1700008316031357088A11BA
:100AA80022208A11003A0319D82D83160313270828
:100AB800260425042404031D742D8B1383126D084A
:100AC8008316A70083126C088316A60083126B088E
:100AD8008316A50083126A088316A4008B170000EA
:100AE8008B13403083120313C9004230CA000F3001
:100AF800CB00CC01831624088312C9078316250866
:100B08000318250F882D8A2D8312CA0783162608F5
:100B18000318260F902D922D8312CB0783162708D2
:100B28000318270A8312CC076D084C02031DA62D53
:100B38006C084B02031DA62D6B084A02031DA62D47
:100B48006A0849020318D52D8B1700008316031372
:100B5800A401A501A601A7012C268A118312650804
:100B6800031DB82D0130B92D0030E5006508031DBF
:100B7800D42D8510D9010330D800D030D70090305B
:100B8800D6008316B7010230B6008B30B5000A30A4
:100B9800B4008B1302308312EE008B170000D52DA2
:100BA80085148B170000080083160313A401A50100
:100BB800A601A70108008B13831203136A087207A2
:100BC800A0000030031801306B07A2010318A20A25
:100BD8007307A1000318A20A6C082207A3010318CF
:100BE800A30A7407A2000318A30A6D082307750750
:100BF800A3008316A300831222088316A20083127F
:100C080021088316A100831220088316A0008316EA
:100C18000313230883126D02031D222E8316220854
:100C280083126C02031D222E8316210883126B0285
:100C3800031D222E8316200883126A020318292E08
:100C48008B17000064008B130B2E8B170000080015
:100C580083120313DF01D601D701D801D901831606
:100C6800B401B501B601B7018312DE016608EF00D1
:100C78000310061D03140030031801308316DE002C
:100C880008008B136D0883164702031D5B2E831221
:100C98006C0883164602031D5B2E83126B088316AD
:100CA8004502031D5B2E83126A088316440203184B
:100CB800202F8B17000083120313650803191F2FB9
:100CC8008B13061CDF2E6408031DDF2E8B17000014
:100CD8008B138316031351088312B200831652082C
:100CE8008312B300B401B5016A08B2076B08031197
:100CF8000318013E031DB3076C0803110318013ED6
:100D0800031DB4076D0803110318013E031DB50741
:100D180035086D02031D9A2E34086C02031D9A2EA5
:100D280033086B02031D9A2E32086A020318A52E97
:100D38008B170000640083120313061C08008B1332
:100D48008C2E8B17000023278A1183164708460428
:100D5800450444040319D52E51088312AE008316A6
:100D680052088312AF00B001B1012E088316C402E5
:100D780083122F08031C2F0FC22EC42E8316C50200
:100D880083123008031C300FCA2ECC2E8316C602DD
:100D980083123108031C310FD22ED42E8316C702BA
:100DA80083167A088A1122208A118B130130831244
:100DB8000313E4001A2F8B1700008B1320308312C3
:100DC8000313AE00A130AF000730B000B1018316A5
:100DD80048088312AE07831649080318490FF52EF1
:100DE800F72E8312AF0783164A0803184A0FFD2E01
:100DF800FF2E8312B00783164B0803184B0A831281
:100E0800B1076D083102031D132F6C083002031D52
:100E1800132F6B082F02031D132F6A082E020318C5
:100E28001A2F8B17000083120313E3018B1700009E
:100E38008B170000202F23278B17000008008B1327
:100E48007B088A1122208A11003A03196D2F831218
:100E580012300313A801A9007A30AA00AB01831647
:100E680048088312A807831649080318490F3D2F1D
:100E78003F2F8312A90783164A0803184A0F452FE4
:100E8800472F8312AA0783164B0803184B0A8312AD
:100E9800AB076D082B02031D5B2F6C082A02031D8C
:100EA8005B2F6B082902031D5B2F6A082802031CAD
:100EB800642F83164B084A0449044804031D6D2F08
:100EC8008B170000B83083120313AC008830AD00D4
:100ED800752F8B170000831203135B08AD005A08A7
:100EE800AC008B1700008B13831603135E030319E2
:100EF800812F83126508031DC42F8B1700008B13E5
:100F0800831203136F08A0000F30A101A201A301EF
:100F1800A701A6004230A5004030A4008A15772614
:100F28008A1123088316C700831222088316C60075
:100F3800831221088316C500831220088316C40073
:100F480083126A088316C40783126B0803110318F7
:100F5800013E8316031DC50783126C08031103188D
:100F6800013E8316031DC60783126D08031103187B
:100F7800013E8316031DC70783168B170000D02F69
:100F88008B138B1700008B1383160313C401C50141
:100F9800C601C7018B1700008B17000083120313CB
:100FA80086172C08F2002D08F300F401F501DF255F
:100FB8008312031386138B136D088316CB008312D9
:100FC8006C088316CA0083126B088316C900831243
:100FD8006A088316C8008B17000083120313E30303
:100FE8000800031083120313851F0314003003182D
:040FF80001300800BC
:10108400061083128510000008008316031306144B
:10109400831285140000080003108312051D031435
:1010A400003003180130080064008001840A04063B
:1010B40003190034040657288E30F700FF302B053F
:1010C40003196B280310AB0CAA0CA90CA80CF70A83
:1010D40060282808F2002908F3002A08F400770899
:1010E400F500F6018A1576277208A8007308A9008E
:1010F4007408AA0008000B1D8D28FF308312031307
:10110400EA0701300318EB070318EC070318ED078F
:10111400FF3081020B11831203130C1CCA286108CF
:10112400031DC9286808031DC928051C861A9C28A4
:10113400061EA62883165508031DA628E4208A1532
:101144005F308E00F030C82883125F08031DC92861
:101154006E1CB028831203130514B32883120313DF
:101164000510EE1CB928831203138616BC288312BB
:10117400031386126E1DC228831203130616C52894
:1011840083120313061217308E00FC308F000C10EC
:101194000B1CD4280000831203138618D328E420E0
:1011A4008A150B106408031D0618DD28E4015E0887
:1011B4000319DD28E92071088A00700E8300FE0EF1
:1011C4007E0E090083120612051086120800DF0144
:1011D400D601D701D801D9018316B401B501B601EE
:1011E400B7018312DE016608EF000310061D031425
:1011F4000030031801308316DE0008008312031345
:10120400680803193E290930F20000305C218A1570
:1012140083125A03FF3AF70066087702F73EF2009A
:1012240001305C218A1583125D08F5005C08F40026
:10123400023074218A1583125B08F5005A08F40001
:10124400043074218A1583126608F20006305C218A
:101254008A155408F5005308F400073074218A15E0
:101264005208F5005108F400093074218A158312DC
:101274006708F2000B305C218A1133228A15E501DC
:101284008B130130E100DF00EE017F218A15003A63
:10129400031954298B170000640083120313860179
:1012A4008B1347298B1700008B157F218A158E21FC
:1012B40063000800F30083169C185D2973089B00E3
:1012C40072089A003F309C0503108B1B03148B1388
:1012D4001C1555309D00AA309D009C141C11031848
:1012E4008B170800F6007508F20076085C218A1551
:1012F4007408F2007608013E5C2983160313061372
:10130400831206178316061703108312061F03148D
:1013140000300318013008008316590B95298312F5
:1013240085018601080024308312850086010800A7
:10133400831203136008031D112A5D08F3005C087F
:10134400F2008A153D268A15003A0319B929831635
:1013540003134308420441044004031908005122C2
:1013640083160313C001C101C201C301080083161F
:1013740003134308420441044004031DD4298B137E
:1013840083126D088316C30083126C088316C2008F
:1013940083126B088316C10083126A088316C00087
:1013A4008B1700008B13403083120313A4004230C8
:1013B400A5000F30A600A701831640088312A407D6
:1013C400831641080318410FE829EA298312A50767
:1013D400831642080318420FF029F2298312A60744
:1013E400831643080318430A8312A7076D082702CC
:1013F400031D062A6C082602031D062A6B08250213
:10140400031D062A6A08240203180E2A8B170000FB
:10141400023083120313E0008B17000008008B13C3
:101424008030A4008430A5001E30A600A7018316D6
:1014340038088312A407831639080318390F232A9E
:10144400252A8312A50783163A0803183A0F2B2A74
:101454002D2A8312A60783163B0803183B0A83121E
:10146400A7076D082702031D412A6C082602031DE5
:10147400412A6B082502031D412A6A082402031825
:101484000E2A8B1700008A1105228A158312031372
:10149400E0018316C001C101C201C3010E2A063056
:1014A4008312680203185B2A8B13E80A8B17000067
:1014B40008008B130130E800582A8A11D6208A15B7
:1014C4008A1500218A15831203136108031D372B23
:1014D4006808031D1C2B342B5D08CA005C08C90076
:1014E4006030CB01CC01CD00EA30CE00E830CF0033
:1014F4000330D000D101D10A8A1130208A15831219
:1015040003134A08DD004908DC00302B5B08CA00DD
:101514005A08C900E830CB000330CC00B830CD0005
:101524008830CE00E830CF000330D0000230D10044
:101534008A1130208A15831203134A08DB004908F4
:10154400DA00302B6608C9000B30CA01CB00193011
:10155400CC01CD000430CE01CF01CF0AD001D1009F
:101564008A1130208A15831203134908E600302BB0
:101574008619DF2A831654088312CA008316530877
:101584008312C900E830CB000330CC004030CD00DA
:101594009C30CE00E830CF000330D0000530D100BD
:1015A4008A1130208A15831203134A088316D40043
:1015B400831249088316D300302B8A1551228A15C9
:1015C400302B831652088312CA00831651088312E3
:1015D400C900F430CB000130CC002030CD004E30B7
:1015E400CE00F430CF000130D0000330D1008A1196
:1015F40030208A15831203134A088316D2008312FB
:1016040049088316D100302B6708C9000430CA0189
:10161400CB01CB0ACC01CD000630CE01CF01CF0ADD
:10162400D001D1008A1130208A158312031349088E
:10163400E700302B6808013A03196E2A033A0319AC
:10164400882A013A0319A42A073A0319BA2A013A43
:101654000319E32A033A0319062B302B8A159A211E
:101664008A15372B8A1116238A158A157F218A1524
:10167400003A0319A82B83162B082A0429042804EA
:10168400031D572B8B1383126D088316AB00831233
:101694006C088316AA0083126B088316A9008312B0
:1016A4006A088316A8008B1700008B13603083121E
:1016B4000313D200E330D3001630D400D5018316CF
:1016C40028088312D207831629080318290F6B2BC5
:1016D4006D2B8312D30783162A0803182A0F732B42
:1016E400752B8312D40783162B0803182B0A831235
:1016F400D5076D085502031D892B6C085402031D80
:10170400892B6B085302031D892B6A0852020318A4
:10171400A52B8B17000083160313A801A901AA01A6
:10172400AB018B138312610803199E2B8B170000E6
:101734008A11D6208A15A32B8B1700008A15002145
:101744008A158B1700008B170000B42B8316A80191
:10175400A901AA01AB01831261080319B42B8A15EC
:1017640000218A158B13831246300313D201D30050
:10177400C330D4002330D500831638088312D2072F
:10178400831639080318390FC82BCA2B8312D307C1
:1017940083163A0803183A0FD02BD22B8312D4079E
:1017A40083163B0803183B0A8312D5076D085502BC
:1017B400031DE62B6C085402031DE62B6B08530231
:1017C400031DE62B6A0852020318F02B8B17000046
:1017D4008A11C1208A158A1500218A158B170000E9
:1017E4008B136B30831203136D02031D032C4930DA
:1017F4006C02031D032CD2306B02031D032C013039
:101804006A02031C0A2C8B1700008A1139228A15DC
:101814008B1700006400652A8316430842044104C0
:10182400400403192D2C8312861D282C5D08F30017
:101834005C08F2003D268A15003A0319432D8316ED
:101844000313C001C101C201C301432D8316500813
:10185400F3004F081B2C83128618432D8A11C120D4
:101864008A1583160313C001C00AC101C201C30152
:101874008B1383126D08A3006C08A2006B08A100EF
:101884006A08A00083163C088312A00283163D0850
:10189400031C3D0F4E2C502C8312A10283163E08CC
:1018A400031C3E0F562C582C8312A20283163F08A9
:1018B400031C3F0F5E2C602C8312A30283120F3093
:1018C400A701A6004230A5004030A400B827230891
:1018D400AB002208AA002108A9002008A8008A1544
:1018E4005E208A1528088316CC00831229088316E3
:1018F400CD0083122A088316CE008B1700008316AE
:1019040003134C088312B60083164D088312B700E4
:1019140083164E088312B800DC258A153608E900C0
:101924008B136D088316BF0083126C088316BE00E8
:1019340083126B088316BD0083126A088316BC00E9
:101944008B170000831203138619CB2C083069020D
:101954000318BB2C8316DC01530883125C0783161F
:10196400CF0054080318540A83125D078316D0006D
:10197400CB2C83160230DC0A5C02031CCB2C8312B2
:101984005D088316D00083125C088316CF000230F2
:10199400DC0083126808031D01346208031DE52C72
:1019A40005306902031CE32C83160330DB0A5B0257
:1019B400031CE52C83120330E201E20A8316DB00E8
:1019C400E52C8316DB01043083126706031D013402
:1019D400690867278A152308AA002408AB0025088C
:1019E400AC009A30A7001930A8003F30A900EC26BB
:1019F4008A152708B6002808B7002908B800DC258E
:101A04008A15690836078316DA005D0B222D063025
:101A140083126902031C132D83165A088312EF00E4
:101A2400352D8316DD018B1383126608EF00031036
:101A3400061D03140030031801308316DE00332D15
:101A4400790B352D083083126902031C352D83165A
:101A5400DD01DD0A8B1383126908EF008316DE01B2
:101A6400DE0A8B17000083120313061D3C2D650844
:101A7400031D01346F086602031801346608EF0081
:101A8400013483120313620B872D02306706031D92
:101A9400512D8618502D0230E300512DE3014030C2
:101AA400C3004230C4000F30C500C6018316480885
:101AB4008312C307831649080318490F622D642D46
:101AC4008312C40783164A0803184A0F6A2D6C2D23
:101AD4008312C50783164B0803184B0A8312C607E3
:101AE4006D084602031D802D6C084502031D802DE0
:101AF4006B084402031D802D6A0843020318872DD6
:101B0400E2018316DB018312E3017908031900342F
:101B140083165D0B003483126908C300C4010310EB
:101B2400430DA000440DA100A201A11BA2032208A1
:101B3400A3000F30A701A6004230A5004030A40046
:101B440077268A156A08C5006B08C6006C08C700AA
:101B54006D08C80083163C088312C50283163D082D
:101B6400031C3D0FB62DB82D8312C60283163E0802
:101B7400031C3E0FBE2DC02D8312C70283163F08DF
:101B8400031C3F0FC62DC82D8312C80283122308DD
:101B94004802031DD72D22084702031DD72D210813
:101BA4004602031DD72D2008450203180034E30123
:101BB400E30A00343608BA003708BB003808BC0012
:101BC40003103B0D3C0DC2004208031DEE2DB6016F
:101BD400B701B801B90108003608BA003708BB00DC
:101BE4003808BC0017300310BC0CBB0CBA0CFF3E09
:101BF400031DF52D3A08BD00B717B8013608BE001D
:101C04003708BF003808C0008E30C101C202C21FAD
:101C1400182E4208803A8F3E031CE92D0310C10C94
:101C2400C00CBF0CBE0CC20F102E262E1830420260
:101C34000318E92D42080319262E0310BE0DBF0D0B
:101C4400C00DC10DC2031C2E3D080319342EBE095C
:101C5400BF09C009C109BE0A0319BF0A0319C00A92
:101C64000319C10A4108B9004008B8003F08B70089
:101C74003E08B60008008312861C00348B137208D9
:101C8400F4007308F500F601F7016A08F4076B081D
:101C940003110318013E031DF5076C080311031813
:101CA400013E031DF6076D0803110318013E031DD1
:101CB400F70777086D02031D692E76086C02031D71
:101CC400692E75086B02031D692E74086A020318D5
:101CD400742E8B170000640083120313861C0034D7
:101CE4008B135B2E8B1700000134F301A31F872E87
:101CF400A009A109A209A309A00A0319A10A0319A9
:101D0400A20A0319A30AF301F30AA71F962EA40932
:101D1400A509A609A709A40A0319A50A0319A60A6D
:101D24000319A70A0130F306F401F501F601F701DE
:101D340023082204210420040319D52EF201F20AF7
:101D4400A31BAA2E0310A00DA10DA20DA30DA12E5D
:101D54000310F40DF50DF60DF70D23082702031DEE
:101D6400BD2E22082602031DBD2E21082502031DB7
:101D7400BD2E20082402031CCF2E2008A402210813
:101D8400031C210FA5022208031C220FA60223080C
:101D9400031C230FA70274140310A30CA20CA10CA0
:101DA400A00CF20BAA2E73080319E32EF409F5090B
:101DB400F609F709F40A0319F50A0319F60A0319CF
:101DC400F70A7708A3007608A2007508A100740832
:101DD400A00008002708AD002808AE002908AF00BD
:101DE40003102E0D2F0DB0003008031DFD2EA7018A
:101DF400A801A90108002A08AD002B08AE002C0890
:101E0400AF0003102E0D2F0DB5003508031D0E2F46
:101E1400A701A801A901080035087B3EB0072908DD
:101E2400B5002C08B5068030B5050730A817AB17E8
:101E3400AC01B101B201B301B400271C2F2F2A0851
:101E4400B1072B08031103182B0A031DB2072C0832
:101E5400031103182C0A031DB3070310A90CA80CC3
:101E6400A70C0310AA0DAB0DAC0DB40B1F2F09303A
:101E7400B400271C4B2F2A08B1072B0803110318A1
:101E84002B0A031DB2072C08031103182C0A031D87
:101E9400B3070310A90CA80CA70C0310B30CB20CC5
:101EA400B10CB40B3B2F3108F2003208F3003308B5
:101EB400F4003008F5003508F60076277208A7000C
:101EC4007308A8007408A9000800F700F2008E3017
:101ED400F301F401F500F60176277208A3007308F4
:101EE400A4007408A5000800750803197E2F74085F
:101EF40073047204031D872FF201F301F401080037
:101F0400F50A0310F40CF30CF20CFE3074050319FB
:101F1400962F822FF50AF20A0319F30A0319F40A19
:101F24000310F40CF30CF20CFF3074050319A42F06
:101F34008C2F02307502031CA62FF5030310F20D3B
:101F4400F30DF40DF31F9B2F751CF3130310F50C05
:101F54007508A200A101A0012008F2042108F304DD
:101F64002208F4047608031DF4170800F201F301B3
:101F7400F401F50123082204210420040319F72F96
:101F8400F601F60AA31BCC2F0310A00DA10DA20D80
:101F9400A30DC32F0310F20DF30DF40DF50D23085B
:101FA4002702031DDF2F22082602031DDF2F21082D
:101FB4002502031DDF2F20082402031CF12F200813
:101FC400A4022108031C210FA5022208031C220FCE
:101FD400A6022308031C230FA70272140310A30CE8
:101FE400A20CA10CA00CF60BCC2F7508A30074084E
:0C1FF400A2007308A1007208A000080001
:02400E001CDFB5
:00000001FF
